{
  "_format": "hh-sol-artifact-1",
  "contractName": "fistBumpPortal",
  "sourceName": "contracts/FistBump.sol",
  "abi": [
    {
      "inputs": [],
      "stateMutability": "nonpayable",
      "type": "constructor"
    },
    {
      "inputs": [],
      "name": "fistBump",
      "outputs": [],
      "stateMutability": "nonpayable",
      "type": "function"
    },
    {
      "inputs": [],
      "name": "getAddressLength",
      "outputs": [
        {
          "internalType": "uint256",
          "name": "",
          "type": "uint256"
        }
      ],
      "stateMutability": "view",
      "type": "function"
    },
    {
      "inputs": [],
      "name": "getTotalFistBumps",
      "outputs": [
        {
          "internalType": "uint256",
          "name": "",
          "type": "uint256"
        }
      ],
      "stateMutability": "view",
      "type": "function"
    }
  ],
  "bytecode": "0x608060405234801561001057600080fd5b5061003c6040518060600160405280602381526020016108446023913961004160201b6102071760201c565b6101c4565b6100dd816040516024016100559190610142565b6040516020818303038152906040527f41304fac000000000000000000000000000000000000000000000000000000007bffffffffffffffffffffffffffffffffffffffffffffffffffffffff19166020820180517bffffffffffffffffffffffffffffffffffffffffffffffffffffffff83818316178352505050506100e060201b60201c565b50565b60008151905060006a636f6e736f6c652e6c6f679050602083016000808483855afa5050505050565b600061011482610164565b61011e818561016f565b935061012e818560208601610180565b610137816101b3565b840191505092915050565b6000602082019050818103600083015261015c8184610109565b905092915050565b600081519050919050565b600082825260208201905092915050565b60005b8381101561019e578082015181840152602081019050610183565b838111156101ad576000848401525b50505050565b6000601f19601f8301169050919050565b610671806101d36000396000f3fe608060405234801561001057600080fd5b50600436106100415760003560e01c80633b3672bd146100465780634a7d1e05146100645780639d8676b514610082575b600080fd5b61004e61008c565b60405161005b91906104da565b60405180910390f35b61006c6100dd565b60405161007991906104da565b60405180910390f35b61008a610128565b005b60006100d26040518060400160405280601a81526020017f4c656e677468206f66206164647265737341727261793a2025640000000000008152506001805490506102a0565b600180549050905090565b60006101206040518060400160405280601c81526020017f5765206861766520256420746f74616c20666973742062756d707321000000008152506000546102a0565b600054905090565b600160008082825461013a9190610511565b925050819055506101806040518060400160405280601381526020017f25732068617320666973742062756d70656421000000000000000000000000008152503361033c565b6001339080600181540180825580915050600190039060005260206000200160009091909190916101000a81548173ffffffffffffffffffffffffffffffffffffffff021916908373ffffffffffffffffffffffffffffffffffffffff160217905550610205604051806060016040528060258152602001610617602591393361033c565b565b61029d8160405160240161021b9190610458565b6040516020818303038152906040527f41304fac000000000000000000000000000000000000000000000000000000007bffffffffffffffffffffffffffffffffffffffffffffffffffffffff19166020820180517bffffffffffffffffffffffffffffffffffffffffffffffffffffffff83818316178352505050506103d8565b50565b61033882826040516024016102b69291906104aa565b6040516020818303038152906040527f9710a9d0000000000000000000000000000000000000000000000000000000007bffffffffffffffffffffffffffffffffffffffffffffffffffffffff19166020820180517bffffffffffffffffffffffffffffffffffffffffffffffffffffffff83818316178352505050506103d8565b5050565b6103d4828260405160240161035292919061047a565b6040516020818303038152906040527f319af333000000000000000000000000000000000000000000000000000000007bffffffffffffffffffffffffffffffffffffffffffffffffffffffff19166020820180517bffffffffffffffffffffffffffffffffffffffffffffffffffffffff83818316178352505050506103d8565b5050565b60008151905060006a636f6e736f6c652e6c6f679050602083016000808483855afa5050505050565b61040a81610567565b82525050565b600061041b826104f5565b6104258185610500565b93506104358185602086016105a3565b61043e81610605565b840191505092915050565b61045281610599565b82525050565b600060208201905081810360008301526104728184610410565b905092915050565b600060408201905081810360008301526104948185610410565b90506104a36020830184610401565b9392505050565b600060408201905081810360008301526104c48185610410565b90506104d36020830184610449565b9392505050565b60006020820190506104ef6000830184610449565b92915050565b600081519050919050565b600082825260208201905092915050565b600061051c82610599565b915061052783610599565b9250827fffffffffffffffffffffffffffffffffffffffffffffffffffffffffffffffff0382111561055c5761055b6105d6565b5b828201905092915050565b600061057282610579565b9050919050565b600073ffffffffffffffffffffffffffffffffffffffff82169050919050565b6000819050919050565b60005b838110156105c15780820151818401526020810190506105a6565b838111156105d0576000848401525b50505050565b7f4e487b7100000000000000000000000000000000000000000000000000000000600052601160045260246000fd5b6000601f19601f830116905091905056fe257320686173206265656e20616464656420746f20616e2061646472657373206172726179a264697066735822122068fa2bccc3d74ba0694f1b6596fc5370640ad674b7da611d1795fafabda1f0ff64736f6c63430008040033596f6f6f204920616d206120636f6e747261637420616e64204920616d20736d617274",
  "linkReferences": {},
  "deployedLinkReferences": {}
}